{
    "contractName": "CrowdFunding",
    "abi": [
        {
            "inputs": [
                {
                    "internalType": "uint256",
                    "name": "_amount",
                    "type": "uint256"
                }
            ],
            "name": "claim",
            "outputs": [],
            "stateMutability": "nonpayable",
            "type": "function"
        },
        {
            "inputs": [
                {
                    "internalType": "uint256",
                    "name": "_days",
                    "type": "uint256"
                },
                {
                    "internalType": "uint256",
                    "name": "_ethGoal",
                    "type": "uint256"
                }
            ],
            "name": "createNewProject",
            "outputs": [],
            "stateMutability": "nonpayable",
            "type": "function"
        },
        {
            "inputs": [],
            "name": "makeDonation",
            "outputs": [],
            "stateMutability": "payable",
            "type": "function"
        },
        {
            "inputs": [
                {
                    "internalType": "address payable",
                    "name": "_to",
                    "type": "address"
                }
            ],
            "name": "withdrawFunds",
            "outputs": [],
            "stateMutability": "nonpayable",
            "type": "function"
        }
    ],
    "bytecode": "608060405234801561001057600080fd5b5061077a806100206000396000f3fe60806040526004361061003f5760003560e01c8063379607f51461004457806340ea0a941461006657806368742da61461006e578063bb5e4c341461008e575b600080fd5b34801561005057600080fd5b5061006461005f36600461065f565b6100ae565b005b61006461032a565b34801561007a57600080fd5b50610064610089366004610678565b6104e1565b34801561009a57600080fd5b506100646100a93660046106a8565b6105dc565b3360008181526020819052604090206003015442116101145760405162461bcd60e51b815260206004820152601b60248201527f446f6e6174696f6e7320617265207374696c6c206f6e676f696e67000000000060448201526064015b60405180910390fd5b33600081815260208190526040902060028101546001909101541061016e5760405162461bcd60e51b815260206004820152601060248201526f11dbd85b081a5cc81858da1a595d995960821b604482015260640161010b565b33600090815260208181526040808320600501825280832086845290915290205460ff16156101df5760405162461bcd60e51b815260206004820152601860248201527f446f6e6174696f6e20616c726561647920636c61696d65640000000000000000604482015260640161010b565b6101f183670de0b6b3a76400006106e0565b33600090815260208181526040808320600401909152812054919450906102199085906106ff565b101561025a5760405162461bcd60e51b815260206004820152601060248201526f4e6f7420656e6f7567682066756e647360801b604482015260640161010b565b33600090815260208181526040808320600401909152812080548592906102829084906106ff565b9091555050336000908152602081815260408083206004019091529020546102d0573360009081526020818152604080832060050182528083208684529091529020805460ff191660011790555b33600090815260208190526040812060010180548592906102f29084906106ff565b9091555050604051339084156108fc029085906000818181858888f19350505050158015610324573d6000803e3d6000fd5b50505050565b336000818152602081905260409020546001600160a01b031681141561038a5760405162461bcd60e51b815260206004820152601560248201527421b0b63632b91034b9903a3432903337bab73232b960591b604482015260640161010b565b336000818152602081905260409020600301544211156103e35760405162461bcd60e51b8152602060048201526014602482015273111bdb985d1a5bdb9cc8185c994818db1bdcd95960621b604482015260640161010b565b33600081815260208190526040902060028101546001909101541061043d5760405162461bcd60e51b815260206004820152601060248201526f11dbd85b081a5cc81858da1a595d995960821b604482015260640161010b565b3467ffffffffffffffff16341461045657610456610716565b336000908152602081815260408083206004019091528120805434929061047e90849061072c565b909155505033600090815260208190526040812060010180543492906104a590849061072c565b90915550503360009081526020818152604080832060040190915290205467ffffffffffffffff341611156104dc576104dc610716565b505050565b336000818152602081905260409020546001600160a01b031681146105485760405162461bcd60e51b815260206004820152601960248201527f43616c6c6572206973206e6f742074686520666f756e64657200000000000000604482015260640161010b565b336000818152602081905260409020600281015460019091015410156105a75760405162461bcd60e51b815260206004820152601460248201527311dbd85b081a5cc81b9bdd081858da1a595d995960621b604482015260640161010b565b6040516001600160a01b038416904780156108fc02916000818181858888f19350505050158015610324573d6000803e3d6000fd5b33600081815260208190526040812080546001600160a01b031916909217825560019091015561061481670de0b6b3a76400006106e0565b336000908152602081905260409020600201556106328260186106e0565b61063e90610e106106e0565b610648904261072c565b336000908152602081905260409020600301555050565b60006020828403121561067157600080fd5b5035919050565b60006020828403121561068a57600080fd5b81356001600160a01b03811681146106a157600080fd5b9392505050565b600080604083850312156106bb57600080fd5b50508035926020909101359150565b634e487b7160e01b600052601160045260246000fd5b60008160001904831182151516156106fa576106fa6106ca565b500290565b600082821015610711576107116106ca565b500390565b634e487b7160e01b600052600160045260246000fd5b6000821982111561073f5761073f6106ca565b50019056fea2646970667358221220c8d3482f3c92b047168695a49005312ae54b6ed089487357e51a12b0497afeae64736f6c634300080a0033",
    "sourcePath": "/Users/gerard/Documents/blockchain/dapp-crowdfunding/smart-contract/CrowdFunding.sol",
    "compiler": {
        "name": "solc",
        "version": "0.8.10+commit.fc410830"
    },
    "functionHashes": {
        "claim(uint256)": "379607f5",
        "createNewProject(uint256,uint256)": "bb5e4c34",
        "makeDonation()": "40ea0a94",
        "withdrawFunds(address)": "68742da6"
    },
    "gasEstimates": {
        "creation": {
            "codeDepositCost": "382800",
            "executionCost": "418",
            "totalCost": "383218"
        },
        "external": {
            "claim(uint256)": "infinite",
            "createNewProject(uint256,uint256)": "infinite",
            "makeDonation()": "infinite",
            "withdrawFunds(address)": "infinite"
        }
    }
}