{
    "contractName": "CrowdFunding",
    "abi": [
        {
            "inputs": [
                {
                    "internalType": "address",
                    "name": "_crowdFundingAddress",
                    "type": "address"
                },
                {
                    "internalType": "uint256",
                    "name": "_amount",
                    "type": "uint256"
                }
            ],
            "name": "claim",
            "outputs": [],
            "stateMutability": "nonpayable",
            "type": "function"
        },
        {
            "inputs": [
                {
                    "internalType": "uint256",
                    "name": "_days",
                    "type": "uint256"
                },
                {
                    "internalType": "uint256",
                    "name": "_ethGoal",
                    "type": "uint256"
                }
            ],
            "name": "createNewProject",
            "outputs": [],
            "stateMutability": "nonpayable",
            "type": "function"
        },
        {
            "inputs": [
                {
                    "internalType": "address",
                    "name": "_crowdFundingAddress",
                    "type": "address"
                }
            ],
            "name": "makeDonation",
            "outputs": [],
            "stateMutability": "payable",
            "type": "function"
        },
        {
            "inputs": [
                {
                    "internalType": "address",
                    "name": "",
                    "type": "address"
                }
            ],
            "name": "projects",
            "outputs": [
                {
                    "internalType": "address",
                    "name": "owner",
                    "type": "address"
                },
                {
                    "internalType": "uint256",
                    "name": "balance",
                    "type": "uint256"
                },
                {
                    "internalType": "uint256",
                    "name": "ethGoal",
                    "type": "uint256"
                },
                {
                    "internalType": "uint256",
                    "name": "deadline",
                    "type": "uint256"
                }
            ],
            "stateMutability": "view",
            "type": "function"
        },
        {
            "inputs": [],
            "name": "withdrawFunds",
            "outputs": [],
            "stateMutability": "nonpayable",
            "type": "function"
        }
    ],
    "bytecode": "608060405234801561001057600080fd5b50610942806100206000396000f3fe60806040526004361061004a5760003560e01c806302ac60db1461004f57806324600fc314610064578063840e78fd14610079578063aad3ec96146100f3578063bb5e4c3414610113575b600080fd5b61006261005d366004610824565b610133565b005b34801561007057600080fd5b506100626102d0565b34801561008557600080fd5b506100c5610094366004610824565b60006020819052908152604090208054600182015460028301546003909301546001600160a01b0390921692909184565b604080516001600160a01b039095168552602085019390935291830152606082015260800160405180910390f35b3480156100ff57600080fd5b5061006261010e366004610846565b6103c7565b34801561011f57600080fd5b5061006261012e366004610870565b61069a565b336000818152602081905260409020546001600160a01b03168114156101985760405162461bcd60e51b815260206004820152601560248201527421b0b63632b91034b9903a3432903337bab73232b960591b60448201526064015b60405180910390fd5b6001600160a01b03821660009081526020819052604090206003015482904211156101fc5760405162461bcd60e51b8152602060048201526014602482015273111bdb985d1a5bdb9cc8185c994818db1bdcd95960621b604482015260640161018f565b6001600160a01b038316600090815260208190526040902060028101546001909101548491116102615760405162461bcd60e51b815260206004820152601060248201526f11dbd85b081a5cc81858da1a595d995960821b604482015260640161018f565b6001600160a01b038416600090815260208181526040808320338452600401909152812080543492906102959084906108a8565b90915550506001600160a01b038416600090815260208190526040812060010180543492906102c59084906108a8565b909155505050505050565b336000818152602081905260409020546001600160a01b031681146103375760405162461bcd60e51b815260206004820152601960248201527f43616c6c6572206973206e6f742074686520666f756e64657200000000000000604482015260640161018f565b336000818152602081905260409020600281015460019091015410156103965760405162461bcd60e51b815260206004820152601460248201527311dbd85b081a5cc81b9bdd081858da1a595d995960621b604482015260640161018f565b60405133904780156108fc02916000818181858888f193505050501580156103c2573d6000803e3d6000fd5b505050565b6001600160a01b038216600090815260208190526040902060030154829042116104335760405162461bcd60e51b815260206004820152601b60248201527f446f6e6174696f6e7320617265207374696c6c206f6e676f696e670000000000604482015260640161018f565b6001600160a01b038316600090815260208190526040902060028101546001909101548491116104985760405162461bcd60e51b815260206004820152601060248201526f11dbd85b081a5cc81858da1a595d995960821b604482015260640161018f565b6001600160a01b038416600090815260208181526040808320338452600501825280832086845290915290205460ff16156105155760405162461bcd60e51b815260206004820152601860248201527f446f6e6174696f6e20616c726561647920636c61696d65640000000000000000604482015260640161018f565b61052783670de0b6b3a76400006108c0565b6001600160a01b0385166000908152602081815260408083203384526004019091528120549194509061055b9085906108df565b101561059c5760405162461bcd60e51b815260206004820152601060248201526f4e6f7420656e6f7567682066756e647360801b604482015260640161018f565b6001600160a01b038416600090815260208181526040808320338452600401909152812080548592906105d09084906108df565b90915550506001600160a01b038416600090815260208181526040808320338452600401909152902054610636576001600160a01b03841660009081526020818152604080832033845260050182528083208684529091529020805460ff191660011790555b6001600160a01b038416600090815260208190526040812060010180548592906106619084906108df565b9091555050604051339084156108fc029085906000818181858888f19350505050158015610693573d6000803e3d6000fd5b5050505050565b33600081815260208190526040812080546001600160a01b03191690921782556001909101556106d281670de0b6b3a76400006108c0565b336000908152602081905260409020600201556106f08260186108c0565b6106fc90610e106108c0565b61070690426108a8565b3360008181526020819052604090206003810192909255600180548082019091557fb10e2d527612073b26eecdfd717e6a320cf44b4afac2b0732d9fcbe2b7fa0cf60180546001600160a01b0319168217905590546001600160a01b031614610771576107716108f6565b3360009081526020819052604090206001015415610791576107916108f6565b6107a381670de0b6b3a76400006108c0565b33600090815260208190526040902060020154146107c3576107c36108f6565b6107ce8260186108c0565b6107da90610e106108c0565b6107e490426108a8565b3360009081526020819052604090206003015414610804576108046108f6565b5050565b80356001600160a01b038116811461081f57600080fd5b919050565b60006020828403121561083657600080fd5b61083f82610808565b9392505050565b6000806040838503121561085957600080fd5b61086283610808565b946020939093013593505050565b6000806040838503121561088357600080fd5b50508035926020909101359150565b634e487b7160e01b600052601160045260246000fd5b600082198211156108bb576108bb610892565b500190565b60008160001904831182151516156108da576108da610892565b500290565b6000828210156108f1576108f1610892565b500390565b634e487b7160e01b600052600160045260246000fdfea2646970667358221220d16aeb077878bfb0c74b9d99eaaa6599f0d7008c0ba1fcf0f8789210d4a85d6864736f6c634300080a0033",
    "sourcePath": "/Users/gerard/Documents/blockchain/dapp-crowdfunding/smart-contract/CrowdFunding.sol",
    "compiler": {
        "name": "solc",
        "version": "0.8.10+commit.fc410830"
    },
    "functionHashes": {
        "claim(address,uint256)": "aad3ec96",
        "createNewProject(uint256,uint256)": "bb5e4c34",
        "makeDonation(address)": "02ac60db",
        "projects(address)": "840e78fd",
        "withdrawFunds()": "24600fc3"
    },
    "gasEstimates": {
        "creation": {
            "codeDepositCost": "474000",
            "executionCost": "511",
            "totalCost": "474511"
        },
        "external": {
            "claim(address,uint256)": "infinite",
            "createNewProject(uint256,uint256)": "infinite",
            "makeDonation(address)": "infinite",
            "projects(address)": "8976",
            "withdrawFunds()": "infinite"
        }
    }
}