{
    "contractName": "CrowdFunding",
    "abi": [
        {
            "inputs": [
                {
                    "internalType": "address",
                    "name": "_crowdFundingAddress",
                    "type": "address"
                },
                {
                    "internalType": "uint256",
                    "name": "_amount",
                    "type": "uint256"
                }
            ],
            "name": "claim",
            "outputs": [],
            "stateMutability": "nonpayable",
            "type": "function"
        },
        {
            "inputs": [
                {
                    "internalType": "uint256",
                    "name": "_days",
                    "type": "uint256"
                },
                {
                    "internalType": "uint256",
                    "name": "_ethGoal",
                    "type": "uint256"
                }
            ],
            "name": "createNewProject",
            "outputs": [],
            "stateMutability": "nonpayable",
            "type": "function"
        },
        {
            "inputs": [
                {
                    "internalType": "address",
                    "name": "_crowdFundingAddress",
                    "type": "address"
                }
            ],
            "name": "makeDonation",
            "outputs": [],
            "stateMutability": "payable",
            "type": "function"
        },
        {
            "inputs": [
                {
                    "internalType": "address payable",
                    "name": "_to",
                    "type": "address"
                }
            ],
            "name": "withdrawFunds",
            "outputs": [],
            "stateMutability": "nonpayable",
            "type": "function"
        }
    ],
    "bytecode": "608060405234801561001057600080fd5b506108b6806100206000396000f3fe60806040526004361061003f5760003560e01c806302ac60db1461004457806368742da614610059578063aad3ec9614610079578063bb5e4c3414610099575b600080fd5b610057610052366004610794565b6100b9565b005b34801561006557600080fd5b50610057610074366004610794565b6102aa565b34801561008557600080fd5b506100576100943660046107b8565b6103a5565b3480156100a557600080fd5b506100576100b43660046107e4565b610648565b336000818152602081905260409020546001600160a01b031681141561011e5760405162461bcd60e51b815260206004820152601560248201527421b0b63632b91034b9903a3432903337bab73232b960591b60448201526064015b60405180910390fd5b6001600160a01b03821660009081526020819052604090206003015482904211156101825760405162461bcd60e51b8152602060048201526014602482015273111bdb985d1a5bdb9cc8185c994818db1bdcd95960621b6044820152606401610115565b6001600160a01b038316600090815260208190526040902060028101546001909101548491116101e75760405162461bcd60e51b815260206004820152601060248201526f11dbd85b081a5cc81858da1a595d995960821b6044820152606401610115565b3467ffffffffffffffff16341461020057610200610806565b6001600160a01b03841660009081526020818152604080832033845260040190915281208054349290610234908490610832565b90915550506001600160a01b03841660009081526020819052604081206001018054349290610264908490610832565b90915550506001600160a01b03841660009081526020818152604080832060040190915290205467ffffffffffffffff341611156102a4576102a4610806565b50505050565b336000818152602081905260409020546001600160a01b031681146103115760405162461bcd60e51b815260206004820152601960248201527f43616c6c6572206973206e6f742074686520666f756e646572000000000000006044820152606401610115565b336000818152602081905260409020600281015460019091015410156103705760405162461bcd60e51b815260206004820152601460248201527311dbd85b081a5cc81b9bdd081858da1a595d995960621b6044820152606401610115565b6040516001600160a01b038416904780156108fc02916000818181858888f193505050501580156102a4573d6000803e3d6000fd5b6001600160a01b038216600090815260208190526040902060030154829042116104115760405162461bcd60e51b815260206004820152601b60248201527f446f6e6174696f6e7320617265207374696c6c206f6e676f696e6700000000006044820152606401610115565b6001600160a01b038316600090815260208190526040902060028101546001909101548491116104765760405162461bcd60e51b815260206004820152601060248201526f11dbd85b081a5cc81858da1a595d995960821b6044820152606401610115565b6001600160a01b038416600090815260208181526040808320338452600501825280832086845290915290205460ff16156104f35760405162461bcd60e51b815260206004820152601860248201527f446f6e6174696f6e20616c726561647920636c61696d656400000000000000006044820152606401610115565b61050583670de0b6b3a764000061084a565b6001600160a01b03851660009081526020818152604080832033845260040190915281205491945090610539908590610869565b101561057a5760405162461bcd60e51b815260206004820152601060248201526f4e6f7420656e6f7567682066756e647360801b6044820152606401610115565b6001600160a01b038416600090815260208181526040808320338452600401909152812080548592906105ae908490610869565b90915550506001600160a01b038416600090815260208181526040808320338452600401909152902054610614576001600160a01b03841660009081526020818152604080832033845260050182528083208684529091529020805460ff191660011790555b604051339084156108fc029085906000818181858888f19350505050158015610641573d6000803e3d6000fd5b5050505050565b33600081815260208190526040812080546001600160a01b031916909217825560019091015561068081670de0b6b3a764000061084a565b3360009081526020819052604090206002015561069e82601861084a565b6106aa90610e1061084a565b6106b49042610832565b336000818152602081905260409020600381019290925590546001600160a01b0316146106e3576106e3610806565b3360009081526020819052604090206001908101541461070557610705610806565b61071781670de0b6b3a764000061084a565b336000908152602081905260409020600201541461073757610737610806565b61074282601861084a565b61074e90610e1061084a565b6107589042610832565b336000908152602081905260409020600301541461077857610778610806565b5050565b6001600160a01b038116811461079157600080fd5b50565b6000602082840312156107a657600080fd5b81356107b18161077c565b9392505050565b600080604083850312156107cb57600080fd5b82356107d68161077c565b946020939093013593505050565b600080604083850312156107f757600080fd5b50508035926020909101359150565b634e487b7160e01b600052600160045260246000fd5b634e487b7160e01b600052601160045260246000fd5b600082198211156108455761084561081c565b500190565b60008160001904831182151516156108645761086461081c565b500290565b60008282101561087b5761087b61081c565b50039056fea2646970667358221220ef37f484afccbddaadf805bdd63f325f31d18bbc900fb945d8ce5a6eac7fd88f64736f6c634300080a0033",
    "sourcePath": "/Users/gerard/Documents/blockchain/dapp-crowdfunding/smart-contract/CrowdFunding.sol",
    "compiler": {
        "name": "solc",
        "version": "0.8.10+commit.fc410830"
    },
    "functionHashes": {
        "claim(address,uint256)": "aad3ec96",
        "createNewProject(uint256,uint256)": "bb5e4c34",
        "makeDonation(address)": "02ac60db",
        "withdrawFunds(address)": "68742da6"
    },
    "gasEstimates": {
        "creation": {
            "codeDepositCost": "446000",
            "executionCost": "480",
            "totalCost": "446480"
        },
        "external": {
            "claim(address,uint256)": "infinite",
            "createNewProject(uint256,uint256)": "infinite",
            "makeDonation(address)": "infinite",
            "withdrawFunds(address)": "infinite"
        }
    }
}