{
    "contractName": "CrowdFunding",
    "abi": [
        {
            "inputs": [
                {
                    "internalType": "uint256",
                    "name": "_days",
                    "type": "uint256"
                },
                {
                    "internalType": "uint256",
                    "name": "_ethGoal",
                    "type": "uint256"
                }
            ],
            "stateMutability": "nonpayable",
            "type": "constructor"
        },
        {
            "inputs": [],
            "name": "balance",
            "outputs": [
                {
                    "internalType": "uint256",
                    "name": "",
                    "type": "uint256"
                }
            ],
            "stateMutability": "view",
            "type": "function"
        },
        {
            "inputs": [
                {
                    "internalType": "address",
                    "name": "",
                    "type": "address"
                }
            ],
            "name": "balanceReceived",
            "outputs": [
                {
                    "internalType": "uint256",
                    "name": "",
                    "type": "uint256"
                }
            ],
            "stateMutability": "view",
            "type": "function"
        },
        {
            "inputs": [
                {
                    "internalType": "uint256",
                    "name": "_amount",
                    "type": "uint256"
                }
            ],
            "name": "claim",
            "outputs": [],
            "stateMutability": "nonpayable",
            "type": "function"
        },
        {
            "inputs": [],
            "name": "deadline",
            "outputs": [
                {
                    "internalType": "uint256",
                    "name": "",
                    "type": "uint256"
                }
            ],
            "stateMutability": "view",
            "type": "function"
        },
        {
            "inputs": [],
            "name": "ethGoal",
            "outputs": [
                {
                    "internalType": "uint256",
                    "name": "",
                    "type": "uint256"
                }
            ],
            "stateMutability": "view",
            "type": "function"
        },
        {
            "inputs": [
                {
                    "internalType": "address",
                    "name": "",
                    "type": "address"
                },
                {
                    "internalType": "uint256",
                    "name": "",
                    "type": "uint256"
                }
            ],
            "name": "isDonationClaimed",
            "outputs": [
                {
                    "internalType": "bool",
                    "name": "",
                    "type": "bool"
                }
            ],
            "stateMutability": "view",
            "type": "function"
        },
        {
            "inputs": [],
            "name": "makeDonation",
            "outputs": [],
            "stateMutability": "payable",
            "type": "function"
        },
        {
            "inputs": [],
            "name": "owner",
            "outputs": [
                {
                    "internalType": "address",
                    "name": "",
                    "type": "address"
                }
            ],
            "stateMutability": "view",
            "type": "function"
        },
        {
            "inputs": [
                {
                    "internalType": "address payable",
                    "name": "_to",
                    "type": "address"
                }
            ],
            "name": "withdrawFunds",
            "outputs": [],
            "stateMutability": "nonpayable",
            "type": "function"
        }
    ],
    "bytecode": "608060405234801561001057600080fd5b506040516107fb3803806107fb83398101604081905261002f91610082565b600080546001600160a01b0319163317905561004c8260186100bc565b61005890610e106100bc565b61006290426100db565b60035561007781670de0b6b3a76400006100bc565b600255506100f39050565b6000806040838503121561009557600080fd5b505080516020909101519092909150565b634e487b7160e01b600052601160045260246000fd5b60008160001904831182151516156100d6576100d66100a6565b500290565b600082198211156100ee576100ee6100a6565b500190565b6106f9806101026000396000f3fe6080604052600436106100865760003560e01c806368742da61161005957806368742da6146100f457806380fd6ee8146101145780638da5cb5b1461015f578063b69ef8a814610197578063d18a42e1146101ad57600080fd5b806303335d041461008b57806329dcb0cf146100b4578063379607f5146100ca57806340ea0a94146100ec575b600080fd5b34801561009757600080fd5b506100a160025481565b6040519081526020015b60405180910390f35b3480156100c057600080fd5b506100a160035481565b3480156100d657600080fd5b506100ea6100e53660046105e7565b6101da565b005b6100ea61034c565b34801561010057600080fd5b506100ea61010f366004610618565b61050d565b34801561012057600080fd5b5061014f61012f36600461063c565b600560209081526000928352604080842090915290825290205460ff1681565b60405190151581526020016100ab565b34801561016b57600080fd5b5060005461017f906001600160a01b031681565b6040516001600160a01b0390911681526020016100ab565b3480156101a357600080fd5b506100a160015481565b3480156101b957600080fd5b506100a16101c8366004610618565b60046020526000908152604090205481565b33600090815260056020908152604080832084845290915290205460ff161561024a5760405162461bcd60e51b815260206004820152601860248201527f446f6e6174696f6e20616c726561647920636c61696d6564000000000000000060448201526064015b60405180910390fd5b3360009081526004602052604081205461026590839061067e565b10156102a65760405162461bcd60e51b815260206004820152601060248201526f4e6f7420656e6f7567682066756e647360801b6044820152606401610241565b33600090815260046020526040812080548392906102c590849061067e565b909155505033600090815260046020526040902054610304573360009081526005602090815260408083208484529091529020805460ff191660011790555b8060016000828254610316919061067e565b9091555050604051339082156108fc029083906000818181858888f19350505050158015610348573d6000803e3d6000fd5b5050565b6000546001600160a01b031633141561039f5760405162461bcd60e51b815260206004820152601560248201527421b0b63632b91034b9903a3432903337bab73232b960591b6044820152606401610241565b6003544211156103e85760405162461bcd60e51b8152602060048201526014602482015273111bdb985d1a5bdb9cc8185c994818db1bdcd95960621b6044820152606401610241565b600254600154111561042f5760405162461bcd60e51b815260206004820152601060248201526f11dbd85b081a5cc81858da1a595d995960821b6044820152606401610241565b60025460015411156104765760405162461bcd60e51b815260206004820152601060248201526f11dbd85b081a5cc81858da1a595d995960821b6044820152606401610241565b3467ffffffffffffffff16341461048f5761048f610695565b33600090815260046020526040812080543492906104ae9084906106ab565b9091555050336000908152600560209081526040822034808452915260018054919290916104dd9084906106ab565b90915550503360009081526004602052604090205467ffffffffffffffff3416111561050b5761050b610695565b565b6000546001600160a01b031633146105675760405162461bcd60e51b815260206004820152601960248201527f43616c6c6572206973206e6f742074686520666f756e646572000000000000006044820152606401610241565b60025460015410156105b25760405162461bcd60e51b815260206004820152601460248201527311dbd85b081a5cc81b9bdd081858da1a595d995960621b6044820152606401610241565b6040516001600160a01b038216904780156108fc02916000818181858888f19350505050158015610348573d6000803e3d6000fd5b6000602082840312156105f957600080fd5b5035919050565b6001600160a01b038116811461061557600080fd5b50565b60006020828403121561062a57600080fd5b813561063581610600565b9392505050565b6000806040838503121561064f57600080fd5b823561065a81610600565b946020939093013593505050565b634e487b7160e01b600052601160045260246000fd5b60008282101561069057610690610668565b500390565b634e487b7160e01b600052600160045260246000fd5b600082198211156106be576106be610668565b50019056fea26469706673582212202426a1a2639dd376fdeaa770d369b37ae7e376b47a085af09d18c6f6a71eea7664736f6c634300080a0033",
    "sourcePath": "/home/sergio/myStuff/dapp-crowdfunding/smart_contract/contract.sol",
    "compiler": {
        "name": "solc",
        "version": "0.8.10+commit.fc410830"
    },
    "functionHashes": {
        "balance()": "b69ef8a8",
        "balanceReceived(address)": "d18a42e1",
        "claim(uint256)": "379607f5",
        "deadline()": "29dcb0cf",
        "ethGoal()": "03335d04",
        "isDonationClaimed(address,uint256)": "80fd6ee8",
        "makeDonation()": "40ea0a94",
        "owner()": "8da5cb5b",
        "withdrawFunds(address)": "68742da6"
    },
    "gasEstimates": {
        "creation": {
            "codeDepositCost": "357000",
            "executionCost": "infinite",
            "totalCost": "infinite"
        },
        "external": {
            "balance()": "2350",
            "balanceReceived(address)": "2590",
            "claim(uint256)": "infinite",
            "deadline()": "2307",
            "ethGoal()": "2285",
            "isDonationClaimed(address,uint256)": "2640",
            "makeDonation()": "infinite",
            "owner()": "2381",
            "withdrawFunds(address)": "infinite"
        }
    }
}