{
    "contractName": "CrowdFunding",
    "abi": [
        {
            "inputs": [
                {
                    "internalType": "uint16",
                    "name": "_days",
                    "type": "uint16"
                },
                {
                    "internalType": "uint64",
                    "name": "_ethGoal",
                    "type": "uint64"
                }
            ],
            "stateMutability": "nonpayable",
            "type": "constructor"
        },
        {
            "inputs": [],
            "name": "balance",
            "outputs": [
                {
                    "internalType": "uint256",
                    "name": "",
                    "type": "uint256"
                }
            ],
            "stateMutability": "view",
            "type": "function"
        },
        {
            "inputs": [
                {
                    "internalType": "address",
                    "name": "",
                    "type": "address"
                }
            ],
            "name": "balanceReceived",
            "outputs": [
                {
                    "internalType": "uint256",
                    "name": "",
                    "type": "uint256"
                }
            ],
            "stateMutability": "view",
            "type": "function"
        },
        {
            "inputs": [
                {
                    "internalType": "uint256",
                    "name": "_amount",
                    "type": "uint256"
                }
            ],
            "name": "claim",
            "outputs": [],
            "stateMutability": "nonpayable",
            "type": "function"
        },
        {
            "inputs": [],
            "name": "deadline",
            "outputs": [
                {
                    "internalType": "uint256",
                    "name": "",
                    "type": "uint256"
                }
            ],
            "stateMutability": "view",
            "type": "function"
        },
        {
            "inputs": [],
            "name": "ethGoal",
            "outputs": [
                {
                    "internalType": "uint64",
                    "name": "",
                    "type": "uint64"
                }
            ],
            "stateMutability": "view",
            "type": "function"
        },
        {
            "inputs": [
                {
                    "internalType": "address",
                    "name": "",
                    "type": "address"
                },
                {
                    "internalType": "uint256",
                    "name": "",
                    "type": "uint256"
                }
            ],
            "name": "isDonationClaimed",
            "outputs": [
                {
                    "internalType": "bool",
                    "name": "",
                    "type": "bool"
                }
            ],
            "stateMutability": "view",
            "type": "function"
        },
        {
            "inputs": [],
            "name": "makeDonation",
            "outputs": [],
            "stateMutability": "payable",
            "type": "function"
        },
        {
            "inputs": [],
            "name": "owner",
            "outputs": [
                {
                    "internalType": "address",
                    "name": "",
                    "type": "address"
                }
            ],
            "stateMutability": "view",
            "type": "function"
        }
    ],
    "bytecode": "608060405234801561001057600080fd5b5060405161056738038061056783398101604081905261002f91610075565b600080546001600160a01b0319163317905568056bc75e2d63100000600355600280546001600160401b039092166001600160401b0319909216919091179055506100c2565b6000806040838503121561008857600080fd5b825161ffff8116811461009a57600080fd5b60208401519092506001600160401b03811681146100b757600080fd5b809150509250929050565b610496806100d16000396000f3fe60806040526004361061007b5760003560e01c806380fd6ee81161004e57806380fd6ee81461010d5780638da5cb5b14610158578063b69ef8a814610190578063d18a42e1146101a657600080fd5b806303335d041461008057806329dcb0cf146100bf578063379607f5146100e357806340ea0a9414610105575b600080fd5b34801561008c57600080fd5b506002546100a19067ffffffffffffffff1681565b60405167ffffffffffffffff90911681526020015b60405180910390f35b3480156100cb57600080fd5b506100d560035481565b6040519081526020016100b6565b3480156100ef57600080fd5b506101036100fe366004610384565b6101d3565b005b6101036102b1565b34801561011957600080fd5b506101486101283660046103b9565b600560209081526000928352604080842090915290825290205460ff1681565b60405190151581526020016100b6565b34801561016457600080fd5b50600054610178906001600160a01b031681565b6040516001600160a01b0390911681526020016100b6565b34801561019c57600080fd5b506100d560015481565b3480156101b257600080fd5b506100d56101c13660046103e3565b60046020526000908152604090205481565b33600090815260056020908152604080832084845290915290205460ff16156102435760405162461bcd60e51b815260206004820152601860248201527f446f6e6174696f6e20616c726561647920636c61696d6564000000000000000060448201526064015b60405180910390fd5b3360009081526005602090815260408083208484529091528120805460ff19166001908117909155805483929061027b90849061041b565b9091555050604051339082156108fc029083906000818181858888f193505050501580156102ad573d6000803e3d6000fd5b5050565b60025460015467ffffffffffffffff909116116103035760405162461bcd60e51b815260206004820152601060248201526f11dbd85b081a5cc81858da1a595d995960821b604482015260640161023a565b3467ffffffffffffffff16341461031c5761031c610432565b336000908152600460205260408120805434929061033b908490610448565b9250508190555034600160008282546103549190610448565b90915550503360009081526004602052604090205467ffffffffffffffff3416111561038257610382610432565b565b60006020828403121561039657600080fd5b5035919050565b80356001600160a01b03811681146103b457600080fd5b919050565b600080604083850312156103cc57600080fd5b6103d58361039d565b946020939093013593505050565b6000602082840312156103f557600080fd5b6103fe8261039d565b9392505050565b634e487b7160e01b600052601160045260246000fd5b60008282101561042d5761042d610405565b500390565b634e487b7160e01b600052600160045260246000fd5b6000821982111561045b5761045b610405565b50019056fea26469706673582212200a2e58303647db568aceb8ba0c4d4b26043beabf526aac590703158494cfdfea64736f6c634300080a0033",
    "sourcePath": "/home/sergio/myStuff/dapp-crowdfunding/smart_contract/contract.sol",
    "compiler": {
        "name": "solc",
        "version": "0.8.10+commit.fc410830"
    },
    "functionHashes": {
        "balance()": "b69ef8a8",
        "balanceReceived(address)": "d18a42e1",
        "claim(uint256)": "379607f5",
        "deadline()": "29dcb0cf",
        "ethGoal()": "03335d04",
        "isDonationClaimed(address,uint256)": "80fd6ee8",
        "makeDonation()": "40ea0a94",
        "owner()": "8da5cb5b"
    },
    "gasEstimates": {
        "creation": {
            "codeDepositCost": "234800",
            "executionCost": "infinite",
            "totalCost": "infinite"
        },
        "external": {
            "balance()": "2339",
            "balanceReceived(address)": "2585",
            "claim(uint256)": "infinite",
            "deadline()": "2318",
            "ethGoal()": "2303",
            "isDonationClaimed(address,uint256)": "2624",
            "makeDonation()": "infinite",
            "owner()": "2359"
        }
    }
}